:060000000A128A110C280F
:10000800FE00030EF0000A08F1000A128A15D62E27
:100018000A128A110F280A128A11FB270A128A115A
:10002800BB000A128A11FA270A128A11FB00B101D1
:10003800B201B301B401B501B601B701B801B90104
:10004800BA01F901FA0183010A128A11642B831299
:100058000313AA00270A031D322833283828FF3043
:10006800AA00B101B201B6015030F6008030F700A5
:100078000A128A151C260A128A11D430F600C030DA
:10008800F7000A128A151C260A128A110130F60096
:10009800D030F7000A128A151C260A128A11C830B5
:1000A80083120313A50020300A128A15B1250A12FB
:1000B8008A11C93083120313A50020300A128A1549
:1000C800B1250A128A11CA3083120313A500203001
:1000D8000A128A15B1250A128A11323083120313C3
:1000E800A8000130A802280A031D7B287C2875284F
:1000F800C830A5006430F2000030F3003208F50083
:100108003108F4000A128A1518270A128A1172088F
:10011800303E0A128A15B1250A128A11C930831293
:100128000313A5000A30A0000030A1000A30F20035
:100138000030F3003208F5003108F4000A128A157D
:1001480018270A128A11730883120313A30072086E
:10015800A2000A128A159C260A128A118312031316
:100168002008303E0A128A15B1250A128A11CA30AF
:1001780083120313A5000A30A0000030A100320842
:10018800A3003108A2000A128A159C260A128A11B5
:10019800831203132008303E0A128A15B1250A1269
:1001A8008A112A30831203132A060319DC28DD2852
:1001B800082923302A060319E228E32808292A0AED
:1001C8000319E728E8280829033036020318ED2820
:1001D800EE28B1293208F3003108F2000A30F400A1
:1001E8000030F5000A128A11D5270A128A118312E3
:1001F80003132A087207B10000300318013073078F
:10020800B2000130B607B1292A302A06031D0D298C
:100218000E291229B101B201B601B12923302A06EB
:10022800031D17291829B12900303202B5300319E6
:100238003102031C202921292529B430B1000030BE
:10024800B2000A128A15C6250A128A115E30F60013
:100258008230F7000A128A151C260A128A119A306F
:10026800F6009030F7000A128A151C260A128A1125
:10027800E230F6009D30F7000A128A151C260A1291
:100288008A113C3083120313B3000030B4001215F6
:10029800A6299A30A5006430F2000030F300340833
:1002A800F5003308F4000A128A1518270A128A1171
:1002B8007208303E0A128A15B1250A128A119B303B
:1002C80083120313A5000A30A0000030A1000A30F1
:1002D800F2000030F3003408F5003308F4000A1285
:1002E8008A1518270A128A11730883120313A300A8
:1002F8007208A2000A128A159C260A128A11831211
:1003080003132008303E0A128A15B1250A128A11F1
:100318009C3083120313A5000A30A0000030A1000E
:100328003408A3003308A2000A128A159C260A1270
:100338008A11831203132008303E0A128A15B12548
:100348000A128A118312031333083404031DAD29DA
:10035800AE294D2912111130BB00C830A50020303C
:100368000A128A15B1250A128A11C9308312031399
:10037800A50020300A128A15B1250A128A11CA303E
:1003880083120313A50020300A128A15B1250A1218
:100398008A11323083120313A9000130A902290AF5
:1003A800031DD729D829D129C830A5006430F20007
:1003B8000030F3003208F5003108F4000A128A15FB
:1003C80018270A128A117208303E0A128A15B125B6
:1003D8000A128A11C93083120313A5000A30A0003B
:1003E8000030A1000A30F2000030F3003208F500B6
:1003F8003108F4000A128A1518270A128A1173089C
:1004080083120313A3007208A2000A128A159C26FD
:100418000A128A11831203132008303E0A128A1521
:10042800B1250A128A11CA3083120313A5000A30B3
:10043800F2000030F3003208F5003108F4000A1227
:100448008A1518270A128A117208303E0A128A156C
:10045800B1250A128A11080083120313AB00270A78
:10046800031D372A382A3E2AB801B701FF30AB00EE
:10047800BA01B9011230F6008030F7000A128A1565
:100488001C260A128A11CD30F600C030F7000A1275
:100498008A151C260A128A110130F600D030F7009E
:1004A8000A128A151C260A128A112A30831203138B
:1004B8002B060319602A612A972A23302B06031971
:1004C800662A672A972A2B0A03196B2A6C2A972A05
:1004D8000130B707033037020318732A742A822AB7
:1004E8000A30F20039080A128A159E250A128A1162
:1004F800831203132B07B900B801B82A0530370255
:100508000318872A882AB82A0A30F2003A080A12F9
:100518008A159E250A128A11831203132B07BA0023
:100528000130B800B82A2A302B06031D9C2A9D2AC0
:10053800A92A38080319A12AA22AA62ABA01023030
:10054800B700B82AB901B701B82A23302B06031D12
:10055800AE2AAF2AB82A07151215DD30BB000A12D9
:100568008A15C6250A128A11831203133808031D37
:10057800BE2ABF2AD22AC930A50020300A128A15FD
:10058800B1250A128A11CA3083120313A50020303C
:100598000A128A15B1250A128A11E42AC630A50062
:1005A80020300A128A15B1250A128A11C73083121F
:1005B8000313A50020300A128A15B1250A128A11E0
:1005C800323083120313AA000130AA022A0A031D3B
:1005D800EE2AEF2AE82AC930A5000A30F2000030D6
:1005E800F3003908A800A9012808F4002908F50033
:1005F8000A128A1170270A128A117208303E0A12EA
:100608008A15B1250A128A11CA3083120313A5006C
:100618000A30F2000030F3003908A800A9012808C0
:10062800F4002908F5000A128A15A9270A128A1166
:100638007208303E0A128A15B1250A128A11C8308A
:1006480083120313A5003A300A128A15B1250A123B
:100658008A11C63083120313A5000A30F200003055
:10066800F3003A08A800A9012808F4002908F500B1
:100678000A128A1170270A128A117208303E0A1269
:100688008A15B1250A128A11C73083120313A500EF
:100698000A30F2000030F3003A08A800A90128083F
:1006A800F4002908F5000A128A15A9270A128A11E6
:1006B8007208303E0A128A15B1250A128A110800FA
:1006C80083120313AF010A128A15DB250A128A1155
:1006D80001300A128A15F9250A128A1183120313A6
:1006E800B00002303B06031D7A2B7B2BDD2B300339
:1006F800031D7F2B802BA72B0A128A15C6250A12E9
:100708008A11113083120313BB00AF018430F60045
:10071800C030F7000A128A151C260A128A11063000
:1007280083120313AE001330AD00AD30AC00AC0B38
:100738009B2BAD0B9B2BAE0B9B2B0A128A15C62548
:100748000A128A11DD2B02303006031DAC2BAD2BAB
:10075800BA2B0A128A15C6250A128A1183120313A4
:10076800AF011230BB00FF30B500DD2B033030067F
:10077800031DBF2BC02BCB2B0A128A15C6250A12C4
:100788008A1183120313AF011330BB00B72B043057
:100798003006031DD02BD12BDD2B0A128A15C62556
:1007A8000A128A11143083120313BB000130AF0000
:1007B800B72BDD30831203133B06031DE42BE52B17
:1007C800112C04303006031DEA2BEB2BFF2B2F08CE
:1007D8000319EF2BF02B702C39081E3EB9003C3062
:1007E8003902031CF82BF92B222C0130BA073908DF
:1007F800C43EB900702C05303006031D042C052CAE
:10080800082CCC30BB00702C06303006031D0D2C94
:100818000E2C222CBB30BB00702CCC303B06031DA9
:10082800162C172C702C04303006031D1C2C1D2C84
:10083800222C07151215DD30BB00702C702C0A1203
:100848008A155A270A128A11023083120313BB0031
:100858000A128A15C6250A128A118D2C0A128A15BF
:1008680041260A128A118D2C3508A70030080A1271
:100878008A1130220A128A118D2C0A128A11EB254C
:100888000A128A118D2C071112118D2C07111211C1
:10089800BA01B9010A128A15C6250A128A1102304C
:1008A80083120313BB008D2C3508A70030080A12E9
:1008B8008A1130220A128A118D2C3508A7003008B7
:1008C8000A128A112B200A128A118D2C0A128A15F3
:1008D80064250A128A118D2C3B08013A0319232C2E
:1008E800033A0319322C133A0319382C033A031923
:1008F800582C013A0319612C073A03196A2CAF3AAC
:1009080003194A2C773A0319472C113A0319412C39
:100918008D2C83120313B5016C2B0A128A110C2833
:10092800C330F700CD30F600F60B982CF70B982C57
:10093800F20133300A128A1566260A128A111B3010
:10094800F7009E30F600F60BA72CF70BA72C00003B
:10095800F20133300A128A1566260A128A11A63065
:10096800F600F60BB52C0000F20133300A128A1596
:1009780066260A128A11C02CC12C0000F20102302E
:100988000A128A1566260A128A11A630F600F60B94
:10099800CB2C0000F20128300A128A1566260A12AA
:1009A8008A11A630F600F60BD72C0000F2010130B0
:1009B8000A128A1566260A128A110430F7003D3099
:1009C800F600F60BE52CF70BE52CEA2CF2010C30BF
:1009D8000A128A1566260A128A11A630F600F60B44
:0609E800F32C00000800E2
:100A000005308A000408840A820700342A343A3404
:100A100043344C344534413452342034203423346C
:100A20003A3445344E34543445345234003453341B
:100A3000453454342034543449344D34453420340E
:100A400028344D344D343A3453345334003445341F
:100A50006E346A346F347934203479346F347534B9
:100A6000723420346D34653461346C340034343481
:100A70002E34533454344134523454342F34523499
:100A80004534533455344D34453400344D34693491
:100A9000633472346F34773461347634653420349F
:100AA0004F34763465346E34003453344534543422
:100AB0002034543445344D34503420343C342A34BA
:100AC00043343E3400345034723465342D34483469
:100AD00065346134743469346E34673420340034DE
:100AE00033342E3443346F346E34763465346E349C
:100AF000743469346F346E34003450346F34773466
:100B00006534723469346E34673420344F344E3473
:100B1000003450346F347734653472343D343934B2
:100B20003034303477340034543449344D3445341F
:100B30002034553450342134213421340034543499
:100B400069346D3465342034523465346D343A344C
:100B5000003431342E344D346934633472346F349C
:100B600020340034543449344D34453420343D3439
:100B70002034003435342E34503441345534533419
:100B80004534003432342E344734723469346C3492
:100B90006C34003434342E3453347434613472344D
:100BA00074340034543449344D34453420342D34B5
:100BB0000034543445344D34503420342D34003412
:100BC00036342E34533454344F3450340034733468
:100BD000653463340034AD30F6008130F7000A121A
:100BE0008A151C260A128A118C3083120313A50061
:100BF0000A30F2000030F3003908A700A8012708E6
:100C0000F4002808F5000A128A1170270A128A11C6
:100C10007208303E0A128A15B1250A128A118D30E7
:100C200083120313A5000A30F2000030F3003908E4
:100C3000A700A8012708F4002808F5000A128A1561
:100C4000A9270A128A117208303E0A128A15B125A4
:100C50000A128A118B3083120313A5003A300A124C
:100C60008A15B1250A128A11893083120313A5004F
:100C70000A30F2000030F3003A08A700A801270864
:100C8000F4002808F5000A128A1170270A128A1146
:100C90007208303E0A128A15B1250A128A118A306A
:100CA00083120313A5000A30F2000030F3003A0863
:100CB000A700A8012708F4002808F5000A128A15E1
:100CC000A9270A128A117208303E0A128A15B12524
:100CD0000A128A113230F600C130F7000A128A1562
:100CE0001C260A128A11B530F600C130F7000A122C
:100CF0008A151C260A128A11DB30F600C130F70073
:100D00000A128A151C260A128A11831203133A0842
:100D1000031D8B2E8C2EC32E3908031D902E912E71
:100D2000C32E0A128A15C6250A128A1183120313CA
:100D3000121107118F30F600C430F7000A128A151D
:100D40001C260A128A112230F6009030F7000A128F
:100D50008A151C260A128A118312031387141A306B
:100D600083120313A9005E30A8006D30A700A70B03
:100D7000B72EA80BB72EA90BB72EBE2E83120313C6
:100D800087100230BB000800831203138811081576
:100D9000881408146430F2000030F300FF30F207CA
:100DA0000318F30AFF30F307720A031DDB2E730AE0
:100DB000031DDB2EDC2ECE2E831203130618E12E2C
:100DC000E22EE42E01306F2F8618E72EE82EEA2E51
:100DD00002306F2F0619ED2EEE2EF02E03306F2FFE
:100DE00088150811881408146430F2000030F300EC
:100DF000FF30F2070318F30AFF30F307720A031DEE
:100E0000052F730A031D052F062FF82E83120313D7
:100E100006180B2F0C2F0E2F04306F2F8618112F52
:100E2000122F142F05306F2F0619172F182F1A2F76
:100E300006306F2F88150815881008146430F200EA
:100E40000030F300FF30F2070318F30AFF30F30716
:100E5000720A031D2F2F730A031D2F2F302F222FED
:100E6000831203130618352F362F382F07306F2FB4
:100E700086183B2F3C2F3E2F08306F2F0619412F2D
:100E8000422F442F09306F2F881508158814081039
:100E90006430F2000030F300FF30F2070318F30A69
:100EA000FF30F307720A031D592F730A031D592FD0
:100EB0005A2F4C2F8312031306185F2F602F622FB7
:100EC0002A306F2F8618652F662F682F00306F2FFE
:100ED00006196B2F6C2F6E2F23306F2FFF300800F9
:100EE00083120313A101F31F762F772F7E2FF209B0
:100EF000F309F20A0319F30A0130A100F51F812F4B
:100F0000822F892FF409F509F40A0319F50A013033
:100F1000A106A201A301720873040319902F912F57
:100F2000C62F0130A0009D2F01300310F20DF30DEC
:100F3000FF3E031D952F0130A007F31FA02FA12F07
:100F4000942F01300310A20DA30DFF3E031DA22F0D
:100F500073087502031DAE2F72087402031CB12FB3
:100F6000B22FB92F7208F4027308031CF503F502BF
:100F7000221401300310F30CF20CFF3E031DBA2FB4
:100F80000130A002031DC52FC62FA12F2108031970
:100F9000CA2FCB2FD02FA209A309A20A0319A30A93
:100FA0002308F3002208F2000800F601F701721C82
:100FB000DA2FDB2FE12F7408F6070318F70A7508FC
:100FC000F70701300310F40DF50DFF3E031DE22F6E
:100FD00001300310F30CF20CFF3E031DE92F7208E1
:100FE0007304031DF42FF52FD72F7708F30076082D
:080FF000F20008000134013495
:101AC8001E3083120313B900BA0107151215DD3051
:101AD800BB0008008316031308080F398800091192
:101AE80089100A128A1194240A128A15080083168A
:101AF80003130608073886000808F03988008113A0
:101B08008312031388150815881408140800831213
:101B18000313121392121212121592101210831636
:101B280003138C14831203138C10FA3083160313D7
:101B380092000800F400F301741CA32DA42DA62D17
:101B48007208F3070310F20D0310F40C7408031D58
:101B5800AE2DAF2DA02D7308080083120313A60025
:101B6800F20125080A128A1566260A128A15F20158
:101B7800F20A8312031326080A128A1566260A1225
:101B88008A150800F20101300A128A1566260A121F
:101B98008A150D30F800AF30F700B630F600F60BB6
:101BA800D32DF70BD32DF80BD32D000008000A1204
:101BB8008A156E250A128A150A128A157B250A12B9
:101BC8008A1583160313071183120313071183164B
:101BD800031387108312031387100A128A158B25A3
:101BE8000A128A150B178B170800F4000A128A11BB
:101BF800C4260A128A15F5007408031D042E052E42
:101C0800072E75081B2E750A03190B2E0C2E132E82
:101C18007B080319102E112E132EFB01052E750AB1
:101C2800031D172E182E1A2E0130FB00FF30080056
:101C3800F20177080A128A1566260A128A15342EC6
:101C4800F201F20A760884000A128A1100250A12A3
:101C58008A150A128A1566260A128A150130F607AD
:101C6800760884000A128A1100250A128A15003A99
:101C7800031D3F2E402E242E0800A430F60080308D
:101C8800F7000A128A151C260A128A15BD30F600BA
:101C9800C030F7000A128A151C260A128A156B3002
:101CA800F6009030F7000A128A151C260A128A15C7
:101CB800C530F600D030F7000A128A151C260A1221
:101CC8008A150800F50072186A2E6E2E8312031307
:101CD8000915712E8312031309117508F03988004C
:101CE8008914A630F300F30B772E00008312031338
:101CF800891075080F39F30003300310F30DFF3E08
:101D0800031D812E0310730D88008914A630F3007B
:101D1800F30B8C2E00008312031389101B30F40080
:101D28009E30F300F30B962EF40B962E000008005D
:101D380083120313200821040319A32EA42ED12EE5
:101D48000130A400B02E01300310A00DA10DFF3EFC
:101D5800031DA82E0130A407A11FB32EB42EA72E51
:101D680021082302031DBA2E20082202031CBD2EBF
:101D7800BE2EC42E2008A2022108031CA303A3021E
:101D880001300310A10CA00CFF3E031DC52E01302D
:101D9800A402031DD02ED12EB42E2308A1002208A0
:101DA800A0000800831203138C1CDB2EDC2E112FDD
:101DB8000130F9070318FA0A0030FA0720307906CB
:101DC8004E3003197A06031DEA2EEB2E102FF90167
:101DD800FA0139080319F12EF22EF52E0130B90255
:101DE800102F3908031DF92EFA2E032F3A0803196C
:101DF800FE2EFF2E032FBA013C30B900102F3308F6
:101E080034040319082F092F102F0130B3020030B2
:101E1800031CB403B402102F8C1071088A00700ED2
:101E28008300FE0E7E0E0900F601F70172087304A6
:101E380003191F2F202F552F0130F8002C2F0130A8
:101E48000310F20DF30DFF3E031D242F0130F80798
:101E5800F31F2F2F302F232F01300310F60DF70D0E
:101E6800FF3E031D312F73087502031D3D2F7208B5
:101E78007402031C402F412F482F7208F402730884
:101E8800031CF503F502761401300310F30CF20C71
:101E9800FF3E031D492F0130F802031D542F552F13
:101EA800302F7708F3007608F20008008312031336
:101EB800A701A8012708803EA500FF300A128A154D
:101EC800B1250A128A15013083120313A7070318D4
:101ED800A80A0030A807003028021030031927028A
:101EE800031C772F782F5E2F7830F600C130F7006B
:101EF8000A128A151C260A128A154130F6009130FA
:101F0800F7000A128A151C260A128A15831203136F
:101F1800A901AA012908D03EA500FF300A128A1596
:101F2800B1250A128A15013083120313A907031871
:101F3800AA0A0030AA0700302A0210300319290221
:101F4800031CA72FA82F8E2F0800F701F51FAD2F10
:101F5800AE2FB52FF409F509F40A0319F50A013073
:101F6800F700F31FB82FB92FBE2FF209F309F20AB1
:101F78000319F30A720873040319C32FC42FF12F2E
:101F88000130F600D02F01300310F20DF30DFF3EA3
:101F9800031DC82F0130F607F31FD32FD42FC72FE7
:101FA80073087502031DDA2F72087402031CDD2FF3
:101FB800DE2FE42F7208F4027308031CF503F50200
:101FC80001300310F30CF20CFF3E031DE52F013026
:101FD800F602031DF02FF12FD42F77080319F52FE0
:101FE800F62FFB2FF409F509F40A0319F50A750809
:081FF800F3007408F200080078
:00000001FF
